:100000000C9435010C9466010C9466010C94660105
:100010000C9466010C9466010C9466010C946601C4
:100020000C9466010C9466010C9466010C946601B4
:100030000C9466010C9466010C9466010C946601A4
:100040000C9466010C9466010C9466010C94660194
:100050000C9466010C9466010C9466010C94900457
:100060000C9466010C9404050C94DA040C9466015B
:100070000C9466010C9466010C9466010C94660164
:100080000C9466010C9466010C9466010C94660154
:100090000C9466010C9466010C9466010C94660144
:1000A0000C9466010C9466010C9466010C94660134
:1000B0000C9466010C9466010C9466010C94660124
:1000C0000C9466010C9466010C9466010C94660114
:1000D0000C9466010C9466010C9466010C94660104
:1000E0000C9466010C94CE010C94AC020C94E401C7
:1000F0000C94DC010C947F050C9498010C944E0236
:100100000C94EE010C94C4010C949E020C94E40235
:100110000C9431030C94D2010C948A020C947B024F
:100120000C94D6010C94B7010C94E0010C949D0141
:100130000C94B3010C94C8010C94AF010C94EA0127
:100140000C94BE010C94BB0100000A0B02090C0DBB
:100150000E0807030401000000000000000000007A
:10016000000000000000000000000000000000008F
:10017000000000001211100000000000000000004C
:10018000000000000000000000000000000000006F
:1001900020002300260029002C002F00320000013F
:1001A00000000301060109010000220025002800CB
:1001B0002B002E003100340002010000050108016F
:1001C0000B0100002100240027002A002D00300030
:1001D000330001010000040107010A0105050505BE
:1001E000070508080808020202020A0A08080404AF
:1001F00004040101010101010101030303030303DD
:100200000303040707070C0C0C0C0C0C0C0C02026B
:10021000020206060606060606060B0B0B0B0B0B68
:100220000B0B0102102020080810204010204080F5
:1002300002010201080402010102040810204080AA
:100240008040201008040201800402018040201038
:100250000804020108040201010204081020408081
:1002600001020408102040807F0511241FBECFEF3B
:10027000D1E2DEBFCDBF00E00CBF12E0A0E0B2E0F3
:10028000EEEBFDE000E00BBF02C007900D92A8343A
:10029000B107D9F722E0A8E4B2E001C01D92A03F67
:1002A000B207E1F711E0C5E3D1E000E006C0219715
:1002B0000109802FFE010E94D506C433D10780E0DA
:1002C0000807A9F70E94B2050C94DD060C94000003
:1002D000282F30E0F901E85BFE4F9491F901EE5DC3
:1002E000FD4F449124523E4FF9012491222309F4F9
:1002F00035C0992311F191509231F8F4E92FF0E0D3
:100300008827EA57FE4F8F4F0C94D506B701BB01E3
:100310009801AF01B3019D01BE01C401C801CE0126
:10032000D201D601DC01E0019D01E401EA01EE0108
:10033000809180008F7780938000E22FF0E0EE0FB5
:10034000FF1FE855FE4FA591B4918FB7F894EC913B
:10035000611148C040954E234C938FBF0895809102
:1003600080008F7DE8CF80918000877FE4CF84B5C7
:100370008F7784BDE2CF84B58F7DFBCF8091B000B5
:100380008F778093B000D9CF8091B0008F7DF9CF67
:10039000809190008F7780939000CFCF80919000D4
:1003A0008F7DF9CF80919000877FF5CF8091A0005D
:1003B0008F778093A000C1CF8091A0008F7DF9CF6F
:1003C0008091A000877FF5CF809120018F77809367
:1003D0002001B3CF809120018F7DF9CF8091200142
:1003E000877FF5CF4E2BB8CF3FB7F89480914D0261
:1003F00090914E02A0914F02B091500226B5A89B59
:1004000005C02F3F19F00196A11DB11D3FBFBA2FA6
:10041000A92F982F8827BC01CD01620F711D811D66
:10042000911D42E0660F771F881F991F4A95D1F7EB
:1004300008958F929F92AF92BF92CF92DF92EF92E8
:10044000FF920E94F4014B015C018AEFC82ED12C6F
:10045000E12CF12C0E94F401681979098A099B09A1
:10046000683E734081059105A8F321E0C21AD108C6
:10047000E108F10888EE880E83E0981EA11CB11CEB
:10048000C114D104E104F10429F7FF90EF90DF904B
:10049000CF90BF90AF909F908F900895AF92BF92F2
:1004A000CF92DF92EF92FF920F931F93CF93DF9340
:1004B0006C017B018B01040F151FEB015E01AE186F
:1004C000BF08C017D10759F06991D601ED91FC9191
:1004D0000190F081E02DC6011995892B79F7C501AE
:1004E000DF91CF911F910F91FF90EF90DF90CF9010
:1004F000BF90AF900895FC01538D448D252F30E0BF
:10050000842F90E0821B930B541710F0CF96089520
:1005100001970895FC01918D828D981761F0A28D4D
:10052000AE0FBF2FB11D5D968C91928D9F5F9F7313
:10053000928F90E008958FEF9FEF0895FC01918DC9
:10054000828D981731F0828DE80FF11D858D90E036
:1005500008958FEF9FEF0895FC01918D228D892FD3
:1005600090E0805C9F4F821B91098F7399270895BB
:1005700081E592E00E94AC0221E0892B09F420E0A1
:10058000822F0895FC01A48DA80FB92FB11DA35A85
:10059000BF4F2C91848D90E001968F739927848FA3
:1005A000A689B7892C93A089B1898C9183708064C6
:1005B0008C93938D848D981306C00288F389E02D67
:1005C00080818F7D80830895EF92FF920F931F9318
:1005D000CF93DF93EC0181E0888F9B8D8C8D9813F6
:1005E0001AC0E889F989808185FF15C09FB7F89402
:1005F000EE89FF896083E889F9898081837080644E
:1006000080839FBF81E090E0DF91CF911F910F9198
:10061000FF90EF900895F62E0B8D10E00F5F1F4FA7
:100620000F731127E02E8C8D8E110CC00FB607FCB6
:10063000FACFE889F989808185FFF5CFCE010E9444
:10064000C202F1CFEB8DEC0FFD2FF11DE35AFF4FEE
:10065000F0829FB7F8940B8FEA89FB8980818062D2
:10066000CFCFCF93DF93EC01888D8823B9F0AA898F
:10067000BB89E889F9898C9185FD03C0808186FD5D
:100680000DC00FB607FCF7CF8C9185FFF2CF8081AC
:1006900085FFEDCFCE010E94C202E9CFDF91CF915D
:1006A000089580E090E0892B29F00E94B802811122
:1006B0000E94000080E090E0892B49F080E090E00B
:1006C000892B29F00E94000081110E94000080E027
:1006D00090E0892B49F080E090E0892B29F00E947E
:1006E000000081110E94000080E090E0892B49F019
:1006F00080E090E0892B29F00E94000081110C9489
:1007000000000895FC0101900020E9F73197AF0146
:10071000481B590BBC0181E592E00C944E028F926C
:100720009F92AF92BF920F931F93CF93DF93CDB75A
:10073000DEB7A1970FB6F894DEBF0FBECDBF19A2EA
:10074000423008F44AE08E010F5D1F4F842E912C39
:10075000B12CA12CA50194010E949406E62FB901A9
:10076000CA01EA30F4F4E05DD801EE938D01232B49
:10077000242B252B79F790E080E0109719F0CD011C
:100780000E948203A1960FB6F894DEBF0FBECDBFC4
:10079000DF91CF911F910F91BF90AF909F908F905D
:1007A0000895E95CE1CFCF92DF92EF92FF92CF9371
:1007B000DF936B017C016DE281E592E00E94E4022F
:1007C000EC0166277727CB016C197D098E099F09FB
:1007D0004AE00E948F038C0F9D1FDF91CF91FF9005
:1007E000EF90DF90CF900895CF93DF930E94820324
:1007F000EC0182E192E00E9482038C0F9D1FDF9149
:10080000CF9108950F931F93CF93DF938091EE02C2
:100810009091EF029927FC01EE5DFD4F24918452E7
:100820009E4FFC018491882399F090E0880F991FD6
:10083000FC01EE53FE4FA591B491FC01E855FE4F2B
:10084000859194918FB7F894EC91E22BEC938FBF44
:1008500060E08091EE020E94680183E090E00197E1
:10086000F1F761E08091EE020E9468018FE090E074
:100870000197F1F760E08091EE020E94680180919B
:10088000EE029091EF029927FC01EE5DFD4F24915D
:1008900084529E4FFC0184918823C1F090E0880F20
:1008A000991FFC01EE53FE4FC591D491FC01E85510
:1008B000FE4FA591B4919FB7F8948881E22FE095FF
:1008C0008E2388838C91E823EC939FBF8091EE0266
:1008D0009091EF029927FC01EE5DFD4F6491FC01C0
:1008E000E452FE4FE491F0E0EE0FFF1FE257FE4F9F
:1008F0008591949100E412E42FE030E0462F0E94AD
:100900003A05611571058105910529F06F5F7F4FEB
:100910008F4F9F4F9F70DF91CF911F910F9108953F
:100920001F920F920FB60F9211242F933F938F9324
:100930009F93AF93BF938091490290914A02A091F7
:100940004B02B0914C023091480223E0230F2D3727
:1009500058F50196A11DB11D2093480280934902CC
:1009600090934A02A0934B02B0934C0280914D02A7
:1009700090914E02A0914F02B09150020196A11D9C
:10098000B11D80934D0290934E02A0934F02B093FD
:100990005002BF91AF919F918F913F912F910F90F6
:1009A0000FBE0F901F90189526E8230F0296A11DE9
:1009B000B11DD2CF1F920F920FB60F9211240BB61A
:1009C0000F922F933F934F935F936F937F938F93E8
:1009D0009F93AF93BF93EF93FF9381E592E00E94C3
:1009E000C202FF91EF91BF91AF919F918F917F9143
:1009F0006F915F914F913F912F910F900BBE0F9090
:100A00000FBE0F901F9018951F920F920FB60F9266
:100A100011240BB60F922F938F939F93EF93FF9315
:100A2000E0916102F09162028081E0916702F091B1
:100A3000680282FD1DC0908180916A028F5F8F7372
:100A400020916B02821741F0E0916A02F0E0EF5AC8
:100A5000FD4F958F80936A02FF91EF919F918F9147
:100A60002F910F900BBE0F900FBE0F901F901895F7
:100A70008081F2CFCF92DF92EF92FF920F931F937C
:100A8000E82FF92F05C0015011092109310961F141
:100A9000908196239417B9F305C0015011092109DB
:100AA000310911F1908196239413F7CFC12CD12CE9
:100AB000E12CF12C0AC08FEFC81AD80AE80AF80A0C
:100AC0000C151D052E053F0579F0808186238417BE
:100AD00091F36C2D7D2D8E2D9F2D1F910F91FF90E9
:100AE000EF90DF90CF90089560E070E080E090E0BC
:100AF0001F910F91FF90EF90DF90CF900895E1E567
:100B0000F2E01382128288EE93E0A0E0B0E08483EA
:100B10009583A683B78384E092E09183808385ECFC
:100B200090E09587848784EC90E09787868780ECB7
:100B300090E0918B808B81EC90E0938B828B82ECA8
:100B400090E0958B848B86EC90E0978B868B118E52
:100B5000128E138E148E87E090E09093EF028093B4
:100B6000EE020895789484B5826084BD84B5816076
:100B700084BD85B5826085BD85B5816085BD809168
:100B80006E00816080936E001092810080918100E0
:100B900082608093810080918100816080938100D8
:100BA000809180008160809380008091B10084609A
:100BB0008093B1008091B00081608093B0008091FB
:100BC0009100826080939100809191008160809378
:100BD0009100809190008160809390008091A100AD
:100BE00082608093A1008091A10081608093A10028
:100BF0008091A00081608093A0008091210182609B
:100C00008093210180912101816080932101809155
:100C1000200181608093200180917A00846080931C
:100C20007A0080917A00826080937A0080917A00C5
:100C3000816080937A0080917A00806880937A0046
:100C40001092C100E0916102F091620282E0808323
:100C5000E0915D02F0915E021082E0915F02F091FE
:100C600060028FEC808310926902E0916502F0913E
:100C7000660286E08083E0916302F09164028081E5
:100C800080618083E0916302F091640280818860DA
:100C90008083E0916302F0916402808180688083A8
:100CA000E0916302F091640280818F7D808384E90A
:100CB000C82ED12CE12CF12C9AE3892E912CA12C59
:100CC000B12C85E192E00E94F4030E940204A70186
:100CD00096010E94B606CA01B90197FF1DC00E9485
:100CE000D3038DE392E00E94F4030E9419020E9454
:100CF0000204A50194010E94B606CA01B90197FF3A
:100D00000FC00E94D30383E492E00E94F4030E9488
:100D100019020E945103D5CF4AE00E948F03E1CF10
:100D20004AE00E948F03EFCFA1E21A2EAA1BBB1B41
:100D3000FD010DC0AA1FBB1FEE1FFF1FA217B307A7
:100D4000E407F50720F0A21BB30BE40BF50B661FBD
:100D5000771F881F991F1A9469F760957095809581
:100D600090959B01AC01BD01CF010895052E97FB25
:100D70001EF400940E94CD0657FD07D00E949406F1
:100D800007FC03D04EF40C94CD0650954095309559
:100D900021953F4F4F4F5F4F0895909580957095E7
:100DA00061957F4F8F4F9F4F0895EE0FFF1F881F54
:0E0DB0008BBF0790F691E02D1994F894FFCFB9
:100DBE0000000000E4024E027B023103AC028A0204
:100DCE009E020D0A005468652064697374616E6337
:100DDE006520746F206F62737461636C6573206934
:100DEE006E2066726F6E742069733A200020696EF1
:080DFE0063680020636D000032
:00000001FF
