:100000000C945C010C948D010C948D010C948D0169
:100010000C948D010C948D010C948D010C948D0128
:100020000C948D010C948D010C948D010C948D0118
:100030000C948D010C948D010C948D010C948D0108
:100040000C948D010C948D010C948D010C948D01F8
:100050000C948D010C948D010C948D010C946B0EFD
:100060000C948D010C943F0F0C94150F0C948D0182
:100070000C948D010C948D010C948D010C948D01C8
:100080000C948D010C948D010C948D010C948D01B8
:100090000C948D010C948D010C948D010C948D01A8
:1000A0000C948D010C948D010C948D010C948D0198
:1000B0000C948D010C948D010C948D010C948D0188
:1000C0000C948D010C948D010C948D010C94DF0E19
:1000D0000C94B50E0C948D010C948D010C948D0133
:1000E0000C948D010C941B050C9409050C94B8021A
:1000F0000C94AA020C9406050C9492020C94180518
:100100000C94A6020C94AE020C94A70C0C947902E9
:100110000C948F030C9485020C947D020C941C03A8
:100120000C94410E0C949C020C948E020C94EF02E1
:100130000C9481020C94C4070C9494070C942E0424
:100140000C9464050C9415050C94A8070C94D60522
:100150000C94B4020C9462020C9488050C942C0646
:100160000C94DC030C9447090C9429040C948A0D1C
:100170000C9488020C948E050C94750F0C940F054A
:100180000C940C050C942B030C9443070C943F0324
:100190000C941E050C9467020C94BA0D0C944D033C
:1001A0000C948B050C94A0020C9498020C941205EC
:1001B00000000A0B02090C0D0E08070304010000E1
:1001C000000000000000000000000000000000002F
:1001D00000000000000000000000000012111000EC
:1001E000000000000000000000000000000000000F
:1001F00000000000000000002200250028002B0065
:100200002E003100340002010000050108010B013D
:1002100000002100240027002A002D0030003300B8
:1002200001010000040107010A0105050505070594
:1002300008080808020202020A0A08080404040462
:10024000010101010101010103030303030303038E
:10025000040707070C0C0C0C0C0C0C0C020202021D
:1002600006060606060606060B0B0B0B0B0B0B0B06
:1002700001021020200808102040102040800201B8
:10028000020108040201010204081020408080409D
:10029000201008040201800402018040201008049C
:1002A000020108040201010204081020408001023A
:1002B000040810204080750F11241FBECFEFD1E23B
:1002C000DEBFCDBF00E00CBF14E0A0E0B2E0ECEB7D
:1002D000F8E200E00BBF02C007900D92A430B10716
:1002E000D9F72AE0A4E0B4E001C01D92A231B20720
:1002F000E1F711E0CCE5D1E000E006C0219701096B
:10030000802FFE010E940E12CB35D10780E0080736
:10031000A9F70E948F100C945C140C940000CF92EB
:10032000DF92EF92FF92CF93DF93EC016A017B01A2
:10033000E889F98982E08083C11481EED806E1045E
:10034000F104A1F060E079E08DE390E0A70196016F
:100350000E94EC11215031094109510956954795E8
:1003600037952795211580E1380798F0E889F989B4
:10037000108260E874E88EE190E0A70196010E9487
:10038000EC1121503109410951095695479537958E
:100390002795EC85FD853083EE85FF852083188EBB
:1003A000EC89FD8986E08083EA89FB898081806110
:1003B0008083EA89FB89808188608083EA89FB8960
:1003C000808180688083EA89FB8980818F7D80833A
:1003D000DF91CF91FF90EF90DF90CF900895CF9372
:1003E000C82F80910C0A90910D0ADC01ED91FC91CF
:1003F0000190F081E02D6C2F199580910A0A8823D5
:1004000081F080910B0A8C2798E041E980FD8427D8
:10041000282F30E035952795822F9150B9F72093FA
:100420000B0ACF91089590E0FC01E059FD4F249113
:10043000865D9D4FFC018491882399F090E0880FA0
:10044000991FFC01E05FFD4FA591B491FC01EA50BA
:10045000FE4F859194918FB7F894EC91E22BEC9339
:100460008FBF0895282F30E0F901E055FE4F949199
:10047000F901E059FD4F4491265D3D4FF90124916A
:10048000222309F435C0992311F191509231F8F4E7
:10049000E92FF0E08827E05BFD4F8F4F0C940E12A0
:1004A00081028502620279027D02670288028E0261
:1004B000920298029C02A002A602AA026702AE0261
:1004C000B402B802809180008F7780938000E22F81
:1004D000F0E0EE0FFF1FEA50FE4FA591B4918FB7E9
:1004E000F894EC91611148C040954E234C938FBF16
:1004F0000895809180008F7DE8CF80918000877F74
:10050000E4CF84B58F7784BDE2CF84B58F7DFBCFF8
:100510008091B0008F778093B000D9CF8091B000E8
:100520008F7DF9CF809190008F7780939000CFCF0F
:10053000809190008F7DF9CF80919000877FF5CFDB
:100540008091A0008F778093A000C1CF8091A00000
:100550008F7DF9CF8091A000877FF5CF809120011A
:100560008F7780932001B3CF809120018F7DF9CFC9
:1005700080912001877FF5CF4E2BB8CF3FB7F894FD
:1005800080910A0490910B04A0910C04B0910D0489
:1005900026B5A89B05C02F3F19F00196A11DB11DDE
:1005A0003FBFBA2FA92F982F8827BC01CD01620F1A
:1005B000711D811D911D42E0660F771F881F991FD5
:1005C0004A95D1F708952FB7F89460910604709179
:1005D000070480910804909109042FBF0895AF92F9
:1005E000BF92CF92DF92EF92FF920F931F93CF9320
:1005F000DF936C017B018B01040F151FEB015E0182
:10060000AE18BF08C017D10759F06991D601ED9116
:10061000FC910190F081E02DC6011995892B79F7A5
:10062000C501DF91CF911F910F91FF90EF90DF9067
:10063000CF90BF90AF900895FC01538D448D252F2E
:1006400030E0842F90E0821B930B541710F0CF966C
:10065000089501970895FC01918D828D981761F09E
:10066000A28DAE0FBF2FB11D5D968C91928D9F5FB5
:100670009F73928F90E008958FEF9FEF0895FC0194
:10068000918D828D981731F0828DE80FF11D858D47
:1006900090E008958FEF9FEF0895FC01918D228DDA
:1006A000892F90E0805C9F4F821B91098F7399275F
:1006B00008958BE699E00E944D0321E0892B09F40F
:1006C00020E0822F08958EE094E00E944D0321E007
:1006D000892B09F420E0822F0895FC01A48DA80F36
:1006E000B92FB11DA35ABF4F2C91848D90E0019674
:1006F0008F739927848FA689B7892C93A089B18994
:100700008C91837080648C93938D848D981306C034
:100710000288F389E02D80818F7D80830895EF9298
:10072000FF920F931F93CF93DF93EC0181E0888FAB
:100730009B8D8C8D98131AC0E889F989808185FF7B
:1007400015C09FB7F894EE89FF896083E889F9891D
:1007500080818370806480839FBF81E090E0DF911F
:10076000CF911F910F91FF90EF900895F62E0B8D72
:1007700010E00F5F1F4F0F731127E02E8C8D8E112D
:100780000CC00FB607FCFACFE889F989808185FF94
:10079000F5CFCE010E946D03F1CFEB8DEC0FFD2F55
:1007A000F11DE35AFF4FF0829FB7F8940B8FEA894F
:1007B000FB8980818062CFCFCF93DF93EC01888D5E
:1007C0008823B9F0AA89BB89E889F9898C9185FDCC
:1007D00003C0808186FD0DC00FB607FCF7CF8C915A
:1007E00085FFF2CF808185FFEDCFCE010E946D03A2
:1007F000E9CFDF91CF91089580E090E0892B29F037
:100800000E94630381110E94000080E090E0892B28
:1008100049F080E090E0892B29F00E9400008111CE
:100820000E94000080E090E0892B29F00E9459038B
:1008300081110E94000080E090E0892B49F080E067
:1008400090E0892B29F00E94000081110C94000097
:1008500008958A579B4FFC0180810895AF92BF9203
:10086000CF92DF92EF92FF920F931F93CF93DF937C
:1008700000D01F921F92CDB7DEB7643671054CF0E1
:10088000FC01EA57FB4F2081F12CE12C222309F4D3
:1008900076C0DA017B018C01BC01615E7D4FED9178
:1008A000FC910190F081E02DCA011995680128EEB4
:1008B000C21A2DEFD20A2FEFD6012C93F801E75E72
:1008C000FD4F2EEF208331968083319690833196B1
:1008D000292F280F209520833196E0821696FC92CE
:1008E00045E050E030E020E0DC011696A417B507A3
:1008F00034F06191260F311D4F5F5F4FF7CF7C01C0
:10090000B8E0EB0EF11C800F911FFC01E15EFD4F82
:1009100020952083E1E0EE16E2E0FE06B4F45601F5
:10092000C5018C199D098E159F054CF5D8011296AD
:100930008D919C91F50161915F01DC01ED91FC913C
:100940000190F081E02D1995EBCF8EE392E09A8330
:10095000898383E08B8386E892E09D838C83D80132
:10096000ED91FC910190F081E02DAE014F5F5F4F62
:1009700067E070E0C8011995EE24EA94FE2CC701E7
:100980000F900F900F900F900F90DF91CF911F91CC
:100990000F91FF90EF90DF90CF90BF90AF900895B0
:1009A0000F931F93CF93DF9300D000D000D01F92FE
:1009B000CDB7DEB78C0182E392E09A8389831B82F4
:1009C0001C821D821E821F82188619861A86D801F3
:1009D000ED91FC910190F081E02DAE014F5F5F4FF2
:1009E0006AE070E0C80119950E94E302F80160878F
:1009F0007187828793872A960FB6F894DEBF0FBE61
:100A0000CDBFDF91CF911F910F9108958FEB92E0B1
:100A1000089586E092E0089580EE92E0089581E0E6
:100A200093E0089584E193E0089585E393E00895C9
:100A30008EE493E008958FE693E00895FC01DB01D6
:100A40004C9150E070E060E042835383648375838F
:100A500011968C911197582B42835383648375832D
:100A600012968C911297682B42835383648375830B
:100A700013968C911397782B4283538364837583E9
:100A800014964C91149750E070E060E046835783D1
:100A90006087718715968C911597582B46835783DD
:100AA0006087718716968C911697682B46835783BB
:100AB0006087718717968C91782B46835783608760
:100AC000718788E090E00895DC01FB0112968C911B
:100AD0001297808313968C911397818314968C912F
:100AE0001497828315968C911597838316968C9113
:100AF0001697848317968C911797858318968C91F7
:100B00001897868319968C91878388E090E00895E2
:100B10008DE793E008958EE993E00895FC018485C4
:100B2000958508958EEA93E008958FEC93E00895FB
:100B3000FC01838594850895DB012C91FC012087BD
:100B40000184F285E02D06961994CF92DF92EF9200
:100B5000FF92DC011D921D921D921C921397FB01C6
:100B600030E020E0419150E0022E02C0440F551FBA
:100B70000A94E2F7052E000C660B770BCD90DD9002
:100B8000ED90FC9013974C295D296E297F294D9398
:100B90005D936D937C931397285F3F4F203231050F
:100BA00009F7FF90EF90DF90CF9008954F925F92FA
:100BB0006F927F928F929F92AF92BF92EF92FF922D
:100BC0000F931F93CF93DF9300D01F92CDB7DEB763
:100BD0007C018B01FB018191BF01F7018283CE0172
:100BE00001960E94A50589819A81AB81BC814C0147
:100BF0005D01F5E08F0E911CA11CB11CA8014C5F9A
:100C00005F4FFA0125E030E02901712C612C481476
:100C100059046A047B0428F4618161932F5F3F4F7C
:100C2000F3CFF801E80FF91F1482F70154834383CF
:100C300005960F900F900F900F90DF91CF911F911D
:100C40000F91FF90EF90BF90AF909F908F907F900B
:100C50006F905F904F9008954F925F926F927F9246
:100C60008F929F92AF92BF92CF92DF92EF92FF92BC
:100C70000F931F93CF93DF93CDB7DEB72C970FB6AB
:100C8000F894DEBF0FBECDBF7C018B01DB018C91E0
:100C900090E0F7019383828311962C91922B93839A
:100CA00082836E5F7F4FCE0101960E94A5058980E9
:100CB0009A80AB80BC8024013501F6E04F0E511CB8
:100CC000611C711C98012B5F3F4FF90186E090E099
:100CD000AC0170E060E0441555056605770520F429
:100CE000418141930196F4CFB4016A5F7F4FF801CF
:100CF000E80DF91D1582D70115963C932E93149794
:100D0000600F711FCE0105960E94A505BAE08B0EFB
:100D1000911C4D805E806F807884C401092C000C8A
:100D2000AA0BBB0B5C016D01A40CB51CC61CD71C27
:100D3000F801E80DF91DAF01401B510B70E060E0B8
:100D40004A155B056C057D0538F42191AF014250D1
:100D50005109DA012C93EFCF480C591CB801640DEE
:100D6000751DFB0131971082C4010197800F911FFF
:100D7000F70197838683CE0109960E94A50592010B
:100D80002C5F3F4F89849A84AB84BC84A901032ED5
:100D9000000C660B770B480D591D6A1D7B1DF80171
:100DA000E20FF31FCF01801B910BB0E0A0E084178E
:100DB0009507A607B70728F48191DF0112978C9356
:100DC000F1CFC901880D991DF801E80FF91FDF0166
:100DD00011971C9221503109020F131FD701199648
:100DE0001C930E9318972181428150E070E060E0DF
:100DF000BA0155274427522B2081422B2381722B85
:100E0000F701428753876487758704962C960FB63F
:100E1000F894DEBF0FBECDBFDF91CF911F910F9130
:100E2000FF90EF90DF90CF90BF90AF909F908F900A
:100E30007F906F905F904F900895FC0140835183A5
:100E4000128213820895FC018281882341F061E0BF
:100E500087E00E94320261E088E00C94320260E098
:100E600087E00E94320260E0F7CFFB012081FC01A5
:100E7000228381E090E00895FC018281FB01808360
:100E800081E090E008954F925F926F927F928F92EF
:100E90009F92AF92BF92EF92FF920F931F93CF93C7
:100EA000DF9300D01F92CDB7DEB77C018B01CE015E
:100EB00001960E94A50589819A81AB81BC814C0174
:100EC0005D0124E0820E911CA11CB11CA8014D5FA4
:100ED0005F4FFA0124E030E02901712C612C4814A5
:100EE00059046A047B0428F4618161932F5F3F4FAA
:100EF000F3CFF801E80FF91F1382F7015383428300
:100F000004960F900F900F900F90DF91CF911F914B
:100F10000F91FF90EF90BF90AF909F908F907F9038
:100F20006F905F904F9008950F931F93CF93DF932F
:100F30008C01EC012696CE010E944307D8011A9637
:100F4000ED91FC91CE01DF91CF911F910F911994FA
:100F5000CF93DF93FC01C281D3816DED73E0CE01AD
:100F60000E942E13892B31F48EEF80930404DF91BD
:100F7000CF91089562EE73E0CE010E942E13892B6B
:100F800099F710920404F3CF2F923F924F925F9201
:100F90006F927F928F929F92AF92BF92CF92DF9289
:100FA000EF92FF920F931F93CF93DF93CDB7DEB7EE
:100FB0002E970FB6F894DEBF0FBECDBF8C016B012C
:100FC000DB018D909D90AD90BC90FC01828193815E
:100FD000A481B58188159905AA05BB0570F4B401F3
:100FE000660F771F660F771F828593850E944412D4
:100FF000D8011B969C938E931A97F8018282938254
:10100000A482B582C60140E050E0BA01A4E0EA2E15
:10101000F12C98012A5F3F4FDC011596EC91159752
:1010200016964C901697512C712C612C3201552438
:1010300044245E2A1496EC9114974E2A1796EC914C
:101040007E2AD7011701E4E02E0E311C71010496AF
:10105000F80182809380A480B580481559056A05FF
:101060007B05A8F446825782608671861497A28415
:10107000B384AA0DBB1DE4E0BE2EF90101900D92D0
:10108000BA94E1F74F5F5F4F6F4F7F4FC5CF8485B5
:101090009585A685B78584159505A605B70570F4D1
:1010A000B201660F771F660F771F848995890E94AA
:1010B0004412D80155969C938E935497F801448618
:1010C000558666867786C601820D931D412C512C6C
:1010D00032011C019801205F3F4FDC0111966C9199
:1010E000119712968C901297912CB12CA12C54012F
:1010F00099248824962A6C91862A13966C91B62A94
:10110000B4E0EB0EF11CF8014485558566857785C2
:101110004416550666067706C0F4808A918AA28A2C
:10112000B38ABC0162197309A489B589A60FB71FD8
:1011300064E0F90101900D926A95E1F7BFEF4B1A57
:101140005B0A6B0A7B0A0496C8CF86899789A08DB3
:10115000B18D88159905AA05BB0560F4B401660F29
:10116000771F848D958D0E944412D8015D969C93C3
:101170008E935C97F801868A978AA08EB18E412C57
:10118000512C32011801FAE12F0E311CF801868929
:101190009789A08DB18D481659066A067B0608F01E
:1011A0005CC0B6016E0D7F1DCE0101960E94A505A3
:1011B00097012C5F3F4F3E872D8789809A80AB80B7
:1011C000BC80C901032E000CAA0BBB0BAC01BD01F6
:1011D000480D591D6A1D7B1D49875A876B877C877F
:1011E000F901EC0DFD1D9F012C193D09B90190E09D
:1011F00080E029853A854B855C85621773078407F3
:10120000950728F42191DF0112972C93ECCFED8400
:10121000FE84E80CF91CF601EE0DFF1D31971082DB
:101220008D859E8501978C0D9D1DD8015B969C93A5
:101230008E935A97C201880F991F5C96ED91FC918D
:10124000E80FF91FD1018D919C9191838083BFEFAD
:101250004B1A5B0A6B0A7B0A99CFC7012E960FB611
:10126000F894DEBF0FBECDBFDF91CF911F910F91DC
:10127000FF90EF90DF90CF90BF90AF909F908F90B6
:101280007F906F905F904F903F902F9008952F9296
:101290003F924F925F926F927F928F929F92AF9206
:1012A000BF92CF92DF92EF92FF920F931F93CF9353
:1012B000DF93CDB7DEB7A6970FB6F894DEBF0FBEAB
:1012C000CDBF8C010E94E3024B015C0198012557C0
:1012D0003B4F3E8B2D8BF90180819181A281B3819F
:1012E00075016401C81AD90AEA0AFB0AD701C601C6
:1012F000893F9A42A105B10510F035971082180177
:1013000034E8231A3BEF330AD1018D919C91892B4C
:1013100079F0F801E157FB4F80819181A281B3817F
:1013200088159905AA05BB0518F4F10111821082F0
:1013300098012C573B4F3A8B298BA80140585B4FA3
:101340005C8B4B8BC8014896988F8F8BD801AA571E
:10135000BB4FBC8FAB8FF801EC56FB4FFE8FED8F70
:10136000215F3F4F38A32F8F42505109588B4F8731
:1013700086599B4F9A8F898F1996BAA3A9A3A50165
:1013800094012C5E3F4F4F4F5F4F2BA33CA34DA3C7
:101390005EA3F80184899589A689B789892B8A2B50
:1013A0008B2BB9F5D80112968D919C91DC01ED91B2
:1013B000FC910284F385E02D19959C0197FF3DC0B7
:1013C000F801EA57FB4F8081882301F17801B9E7E2
:1013D000EB1ABBEFFB0AF70180819181A281B381F7
:1013E000A5019401281B390B4A0B5B0BDA01C901DB
:1013F000853C9940A105B10548F0C8010E94D00480
:10140000D7018D929D92AD92BC92139790E080E0AF
:10141000B6C10E94E302681979098A099B09F8019B
:10142000C488D588E688F788C616D706E806F90680
:1014300008F0B8CF8EEF9FEFA2C1A989BA898D912C
:101440009C911197820F931F8D939C93F101408182
:10145000518147305105F9F4A98DBA8D8D919C9138
:101460001197AC014F5F5F4F4D935C93800F911FBD
:10147000FC01208FAF85B8898D919C9111970197C0
:101480008D939C93892B09F084CF88E090E0F10143
:10149000918380837ECF4115510521F52F3F310582
:1014A00081F481E090E091838083CBA0DCA0EDA06B
:1014B000FEA0A9A1BAA1CD92DD92ED92FC92139764
:1014C00068CF0E94E302681979098A099B09693883
:1014D00073418105910508F45CCFF801EA57FB4F91
:1014E0001082A8CF4130510589F42E3F310519F4FF
:1014F00082E090E0CCCF11821082EB8DFC8D808158
:10150000811147CFC8010E94D00443CF423051051A
:1015100091F4AF85B8892D933C93E98DFA8D1182B2
:10152000108283E090E0D1018D939C93E989FA8940
:10153000318320832ECF4330510571F4322F22277F
:10154000AF85B8898D919C911197280F391F2D93E4
:101550003C9384E090E09BCF4430510579F460E007
:1015600071E00E94D8118F3F910529F485E090E049
:10157000918380830ECF118210820BCF45305105AD
:1015800069F4AB89BC892D933C9386E090E091830C
:101590008083A989BA892D933C93FBCE46305105AF
:1015A000A1F4322F2227EB89FC8980819181280FB9
:1015B000391F3183208387E090E0D1018D939C9384
:1015C000EF85F889808191815DCF4830510509F020
:1015D000E0CE1182108260E071E00E94D8118F3F4E
:1015E000910509F0D6CEAB89BC89ED91FC9130977D
:1015F00009F0DEC0C8010E94D00486E292E09A831E
:1016000089831C821B828EEB92E09E838D83988758
:101610008F839A8789871B861C861D861E86680194
:10162000B8EECB1ABBEFDB0A7801E6EBEE1AEBEF74
:10163000FE0A412C22E0522E612C712CD601ED9134
:10164000FC913097A9F1848195819C838B83808163
:1016500091819E838D8382819381DC01ED91FC9148
:101660000480F581E02D199598878F83D601ED913F
:10167000FC9182819381DC01ED91FC910680F781E0
:10168000E02D19959A8789874B865C866D867E86C4
:10169000D601ED91FC9160857185D801ED91FC91A9
:1016A0000190F081E02DAE014F5F5F4FC8011995A9
:1016B000B2E0CB0ED11CEC14FD0409F0BFCF412CDD
:1016C00092E0592E612C712CF701A081B181109705
:1016D000E1F112968D919C9113979C838B831496C4
:1016E0008D919C9115979E838D83ED91FC9111971F
:1016F0000480F581E02DCD01199598878F83D7015E
:101700008D919C91DC01ED91FC910680F781E02D9B
:1017100019959A8789874B865C866D867E86D80167
:10172000ED91FC91C080D180F70180819181DC0135
:10173000ED91FC910280F381E02D1995AE014F5F90
:101740005F4FBC01C801F6011995F2E0EF0EF11CE4
:10175000E214F30409F0B8CFF801EA57FB4F81E037
:101760008083319680829182A282B382AD89BE89C4
:101770008D929D92AD92BC9213978FEF9FEFA6969C
:101780000FB6F894DEBF0FBECDBFDF91CF911F9192
:101790000F91FF90EF90DF90CF90BF90AF909F9010
:1017A0008F907F906F905F904F903F902F90089513
:1017B000EA30F10509F0A1C082E392E09A838983BF
:1017C0001B821C821D821E821F82188619861A8621
:1017D0000E94E302F801C084D184E284F3849B0177
:1017E000AC012C193D094E095F0969017A016F8925
:1017F000788DCE0101960E941E05C701B60128EE24
:1018000033E040E050E00E94EC1169017A019B0155
:10181000AC018B819C81AD81BE818C0D9D1DAE1D67
:10182000BF1D8B839C83AD83BE8360E472E48FE035
:1018300090E00E94C811CF80D884E984FA84DC014A
:10184000CB018C0D9D1DAE1DBF1D8F839887A98771
:10185000BA870E94E302CF80D884E984FA8436E311
:10186000D31A35E6E30A34ECF30A28EE33E040E01D
:1018700050E00E94EC1129013A019B01AC0160E4A7
:1018800072E48FE090E00E94C811A7019601261B28
:10189000370B480B590BCA01B9012B813C814D8193
:1018A0005E81215031094109510969017A01C41849
:1018B000D508E608F7082601370120E03AEC4AE9A6
:1018C0005BE30E94EC11420E531E641E751ED8018C
:1018D0001C964D925D926D927C921F97F801608BE1
:1018E000718B828B938B0E94E302AD89BE896D93CD
:1018F0007D938D939C9313974CCDE630F10559F46D
:101900006F89788D8D8D9E8D0E94C40781E0EF8D4B
:10191000F8A180833ECDEB30F10521F4AB8DBC8D79
:101920001C9237CDEF53FE4FEE0FFF1FE00FF11F5C
:1019300080819181009709F42CCDDC01ED91FC911F
:101940000190F081E02D6F89788D199522CD4F920D
:101950005F926F927F928F929F92AF92BF92CF923F
:10196000DF92EF92FF920F931F93CF93DF93EC01DF
:101970007B018A81FB0180838B8181838C818283BF
:101980008D8183833496412C512C320104E010E088
:101990009F012F5F3F4FCF010296DF011396A801F1
:1019A0000C5F1F4F8A809B80AC80BD804814590417
:1019B0006A047B04C8F4AA85BB85A40FB51F1497DD
:1019C0004C9111962C91119712969C911297139607
:1019D0008C9140832183928383838FEF481A580A26
:1019E000680A780A3496D4CF4C8540834D85F90136
:1019F00040832E85FC0120838F858C93F701E00FB7
:101A0000F11F412C512C3201AF019F012F5F3F4F3D
:101A1000CF010296DF0113960C5F1F4F8C849D84CB
:101A2000AE84BF84481459046A047B04D8F4CF01FF
:101A3000841B950BAC89BD89A80FB91F3C911196E9
:101A40002C91119712969C91129713968C9130833A
:101A50002183928383838FEF481A580A680A780A91
:101A60003496D3CF4E8940834F89F9014083288D26
:101A7000FC012083898D8C93412C512C32018E895D
:101A80009F89A88DB98D481659066A067B0680F590
:101A90005201AA0CBB1CEC8DFD8DEA0DFB1DA08133
:101AA000B181FD0101900020E9F731976F01CA1A59
:101AB000DB0AA60170E060E0C701800F911F0E9461
:101AC0001D070C5F1F4F8C8D9D8DA80EB91EF50153
:101AD00060817181A601C701800F911F0E942513AB
:101AE0000C0D1D1DFFEF4F1A5F0A6F0A7F0AC7CF4B
:101AF000C801DF91CF911F910F91FF90EF90DF9080
:101B0000CF90BF90AF909F908F907F906F905F909D
:101B10004F900895EF92FF920F931F93CF93DF930F
:101B20008C017B01DC0112962C911297FB01219311
:101B3000CF011396ED91FC91EF0109900020E9F798
:101B40002197CE1BDF0BAE0170E060E00E941D0705
:101B5000D80113966D917C91AE01C70105960E9444
:101B60002513CE010596DF91CF911F910F91FF9024
:101B7000EF900895CF92DF92EF92FF920F931F9311
:101B8000CF93DF936C01EB01DC0112968C911297DD
:101B9000888313968C91139789831496ED91FC9109
:101BA000DF010D900020E9F78D01015011090E1B96
:101BB0001F0BA80170E060E0CE0102960E941D0795
:101BC000F60164817581A801CE0106960E94251355
:101BD000C8010696F601A681B781FD01019000209B
:101BE000E9F731977F01EA1AFB0AA70170E060E08C
:101BF0008C0F9D1F0E941D07065F1F4FD601169672
:101C00006D917C91A701CE01800F911F0E94251339
:101C10000E0D1F1DF601A085B185FD01019000206C
:101C2000E9F731977F01EA1AFB0AA70170E060E04B
:101C3000CE01800F911F0E941D070C5F1F4FD60120
:101C400018966D917C91A701CE01800F911F0E9483
:101C50002513C701800F911FF601628543853485E6
:101C60002585C80FD91F688349833A832B8304963F
:101C7000DF91CF911F910F91FF90EF90DF90CF9068
:101C80000895EF92FF920F931F93CF93DF937C0100
:101C90008B01DC011296ED91FC91EF01099000207F
:101CA000E9F72197CE1BDF0BAE0170E060E0C801C1
:101CB0000E941D07F70162817381AE01C80104967D
:101CC0000E942513CE010496DF91CF911F910F91B1
:101CD000FF90EF9008951F920F920FB60F9211246C
:101CE0002F933F938F939F93AF93BF93809106045D
:101CF00090910704A0910804B09109043091050463
:101D000023E0230F2D3758F50196A11DB11D209317
:101D100005048093060490930704A0930804B093ED
:101D2000090480910A0490910B04A0910C04B091D5
:101D30000D040196A11DB11D80930A0490930B041C
:101D4000A0930C04B0930D04BF91AF919F918F911C
:101D50003F912F910F900FBE0F901F90189526E87E
:101D6000230F0296A11DB11DD2CF1F920F920FB665
:101D70000F9211240BB60F922F933F934F935F93C3
:101D80006F937F938F939F93AF93BF93EF93FF9343
:101D90008BE699E00E946D03FF91EF91BF91AF91A7
:101DA0009F918F917F916F915F914F913F912F9173
:101DB0000F900BBE0F900FBE0F901F9018951F92A3
:101DC0000F920FB60F9211240BB60F922F938F9391
:101DD0009F93EF93FF93E0917B09F0917C098081C1
:101DE000E0918109F091820982FD1DC0908180916E
:101DF00084098F5F8F7320918509821741F0E091EC
:101E00008409F0E0E559F64F958F80938409FF919E
:101E1000EF919F918F912F910F900BBE0F900FBE5E
:101E20000F901F9018958081F2CF1F920F920FB6DE
:101E30000F9211240BB60F922F933F934F935F9302
:101E40006F937F938F939F93AF93BF93EF93FF9382
:101E50008EE094E00E946D03FF91EF91BF91AF91EE
:101E60009F918F917F916F915F914F913F912F91B2
:101E70000F900BBE0F900FBE0F901F9018951F92E2
:101E80000F920FB60F9211240BB60F922F938F93D0
:101E90009F93EF93FF93E0911E04F0911F048081C4
:101EA000E0912404F091250482FD1DC09081809171
:101EB00027048F5F8F7320912804821741F0E091EF
:101EC0002704F0E0E25FFB4F958F80932704FF919A
:101ED000EF919F918F912F910F900BBE0F900FBE9E
:101EE0000F901F9018958081F2CF10926E0910927A
:101EF0006D0948EE53E060E070E040936F09509345
:101F0000700960937109709372098AE492E090936A
:101F10006C0980936B0925ED30E0309378092093AC
:101F2000770924ED30E030937A092093790920ED88
:101F300030E030937C0920937B0921ED30E0309331
:101F40007E0920937D0922ED30E0309380092093B3
:101F50007F0926ED30E030938209209381091092A9
:101F600084091092850910928609109287091092AF
:101F700011041092100440931204509313046093C0
:101F800014047093150490930F0480930E0485EC51
:101F900090E090931B0480931A0484EC90E090935B
:101FA0001D0480931C0480EC90E090931F048093A8
:101FB0001E0481EC90E0909321048093200482EC35
:101FC00090E0909323048093220486EC90E0909319
:101FD0002504809324041092270410922804109260
:101FE000290410922A0488E692E09093AC0480932E
:101FF000AB048EE094E09093AE048093AD0480E057
:1020000091EEA0E0B0E08093AF049093B004A09371
:10201000B104B093B204109231098CE592E0909330
:10202000400980933F091092550910925609109269
:1020300057091092580910925C0910925B09E3EC61
:10204000F8E01192119288E0E53FF807D1F7E5EF4B
:10205000F8E01192119289E0E732F807D1F7E3EC4A
:10206000F4E0119286E0E33CF807D9F7E3ECF6E000
:10207000119288E0E33CF807D9F7109241091092D9
:102080004209109243091092440910924A09109291
:10209000490910924B0910924C0910924D09109267
:1020A0004E0910925409109253091092BF041092D5
:1020B000C0041092C1041092C2048BE699E0909380
:1020C0000D0A80930C0A8FEF8093080A8093090A07
:1020D00010920A0A8EE792E090935E0980935D0960
:1020E00082E792E090936409809363098EEB92E01B
:1020F000909366098093650988EA97E09093680950
:102100008093670981E090E090936A098093690960
:1021100088EE93E090936209809361090895789422
:1021200084B5826084BD84B5816084BD85B58260DC
:1021300085BD85B5816085BD80916E00816080938D
:102140006E001092810080918100826080938100F6
:102150008091810081608093810080918000816006
:10216000809380008091B10084608093B100809161
:10217000B00081608093B000809191008260809374
:1021800091008091910081608093910080919000F6
:102190008160809390008091A10082608093A10073
:1021A0008091A10081608093A1008091A000816056
:1021B0008093A00080912101826080932101809111
:1021C00021018160809321018091200181608093B1
:1021D000200180917A00846080937A0080917A0057
:1021E000826080937A0080917A00816080937A0087
:1021F00080917A00806880937A001092C1004091AB
:10220000AF045091B0046091B1047091B204809118
:10221000AD049091AE040E948F0110922809109293
:10222000270910922A091092290910922E0910925A
:102230002D0910922C0910922B09E5EFF8E090E09F
:1022400080E021913191232B09F09AC0FC01EE0F1F
:10225000FF1FEB50F74F2DE539E0318320838C5978
:102260009F4F9093600980935F0987E00E9413025B
:1022700088E00E94130240E855E260E070E08BE6DF
:1022800099E00E948F018091080A8F3F09F47EC077
:102290008AEA0E94EF018091080A8F770E94EF017D
:1022A00084E00E94EF0180E00E94EF0180E70E943D
:1022B000EF018EE20E94EF0180910A0A882379F0F3
:1022C00080910C0A90910D0ADC01ED91FC91019036
:1022D000F081E02D60910B0A199510920B0AF09095
:1022E000040480910C0A90910D0ADC01ED91FC919F
:1022F0000190F081E02D6FEF199580910C0A90917B
:102300000D0ADC01ED91FC910190F081E02D60E07F
:10231000199580910C0A90910D0ADC01ED91FC91C8
:102320000190F081E02D6F2D19958BEA94E00E94C9
:1023300047090E94BE024B015C018AE0C82ED12CE5
:10234000E12CF12C0E94BE02681979098A099B09C7
:10235000683E734081059105A8F3B1E0CB1AD1081E
:10236000E108F10828EE820E23E0921EA11CB11CA8
:10237000C114D104E104F10429F70E94FC03AFCF9A
:1023800001968931910509F05CCF6FCF84E889CF40
:10239000DB018F939F930E941612BF91AF91A29F72
:1023A000800D911DA39F900DB29F900D1124089553
:1023B00097FB072E16F4009407D077FD09D00E94F2
:1023C000211207FC05D03EF4909581959F4F08950A
:1023D000709561957F4F0895A1E21A2EAA1BBB1B31
:1023E000FD010DC0AA1FBB1FEE1FFF1FA217B307E1
:1023F000E407F50720F0A21BB30BE40BF50B661FF7
:10240000771F881F991F1A9469F7609570958095BA
:1024100090959B01AC01BD01CF010895EE0FFF1F08
:10242000881F8BBF0790F691E02D19940E943512FA
:10243000A59F900DB49F900DA49F800D911D112418
:102440000895AA1BBB1B51E107C0AA1FBB1FA617FB
:10245000B70710F0A61BB70B881F991F5A95A9F74D
:1024600080959095BC01CD010895A29FB001B39FC6
:10247000C001A39F700D811D1124911DB29F700D8D
:10248000811D1124911D08954F925F926F927F924A
:102490008F929F92AF92BF92CF92DF92EF92FF9274
:1024A0000F931F93CF93DF938C01009799F4CB0187
:1024B000DF91CF911F910F91FF90EF90DF90CF9020
:1024C000BF90AF909F908F907F906F905F904F9054
:1024D0000C943713FC01E60FF71F9C0122503109C1
:1024E000E217F30708F4AEC0D901CD91DC91119742
:1024F000C617D70720F1C530D10578F0CE01049773
:102500008617970750F0C61BD70B2297C193D1931C
:102510006D937C93CF010E94D313C801DF91CF91BB
:102520001F910F91FF90EF90DF90CF90BF90AF90F1
:102530009F908F907F906F905F904F9008955B0178
:10254000AC1ABD0A4C018C0E9D1EA091100AB091D0
:10255000110A512C412CF12CE12C109731F580916E
:102560000E0A90910F0A8815990509F05CC046166D
:10257000570608F058C08091000290910102009720
:1025800041F48DB79EB74091040250910502841B1F
:10259000950BE817F90708F055C0F0930F0AE09380
:1025A0000E0AF90171836083B8CF8D919C911197C8
:1025B00012966C90129713967C901397A815B905F4
:1025C00059F56C0142E0C40ED11CCA14DB0420F1A1
:1025D000AC014A195B09DA011296159780F0628204
:1025E000738251834083D9016D937C93E114F1048C
:1025F00071F0D7011396FC93EE9312978ECF22962B
:102600008C0F9D1FF90191838083F301EFCFF0932D
:10261000110AE093100A81CF4816590608F42C01DC
:102620007D01D3019ACFCB010E9437137C01009723
:1026300049F0AE01B8010E942513C8010E94D313CE
:1026400087016BCF10E000E068CFFB01DC0102C026
:1026500001900D9241505040D8F70895FB01DC01E4
:102660008D91019080190110D9F3990B08950F9362
:102670001F93CF93DF938230910510F482E090E0B6
:10268000E091100AF091110A30E020E0B0E0A0E003
:10269000309799F42115310509F44AC0281B390BEC
:1026A00024303105D8F58A819B816115710589F146
:1026B000FB0193838283FE0111C04081518102811D
:1026C000138148175907E0F04817590799F41097F4
:1026D00061F012960C93129713961C933296CF01C9
:1026E000DF91CF911F910F9108950093100A1093DD
:1026F000110AF4CF2115310551F04217530738F074
:10270000A901DB019A01BD01DF01F801C1CFEF0191
:10271000F9CF9093110A8093100ACDCFFE01E20FFA
:10272000F31F819391932250310939832883D7CFA6
:1027300020910E0A30910F0A232B41F420910202BE
:102740003091030230930F0A20930E0A2091000269
:10275000309101022115310541F42DB73EB740916A
:10276000040250910502241B350BE0910E0AF091F2
:102770000F0AE217F307A0F42E1B3F0B28173907A7
:1027800078F0AC014E5F5F4F2417350748F04E0FCD
:102790005F1F50930F0A40930E0A819391939FCF2E
:1027A000F0E0E0E09CCFCF93DF930097E9F0FC01ED
:1027B000329713821282A091100AB091110AED0192
:1027C00030E020E01097A1F420813181820F931F27
:1027D00020910E0A30910F0A2817390709F061C0BD
:1027E000F0930F0AE0930E0ADF91CF910895EA016A
:1027F000CE17DF07E8F54A815B819E01411551053F
:10280000B1F7E901FB83EA8349915991C40FD51FC0
:10281000EC17FD0761F4808191810296840F951F6A
:10282000E90199838883828193819B838A83F0E085
:10283000E0E012968D919C9113970097B9F52D9138
:102840003C911197CD010296820F931F20910E0AA1
:1028500030910F0A2817390739F6309751F5109241
:10286000110A1092100AB0930F0AA0930E0ABCCF5F
:10287000D383C28340815181840F951FC817D90724
:1028800061F44E5F5F4F88819981480F591F5183D2
:1028900040838A819B81938382832115310509F0CE
:1028A000B0CFF093110AE093100A9ECFFD01DC0136
:0C28B000C0CF13821282D7CFF894FFCF64
:1028BC000000120A8000726F7373657269616C5F3D
:1028CC006D7367732F5265717565737450617261A6
:1028DC006D0000000000BA0D2C0615051205000055
:1028EC00000064051E051B051805000000008A0D7C
:1028FC00D6050F050C05000000008F03EF021C032A
:10290C00DC034D032B033F0300000000A70CC4079E
:10291C0009050605000000002E04470929040000E3
:10292C000000410E43078B0588050000000094074A
:10293C008E058B0588054D6573736167652066721E
:10294C006F6D206465766963652064726F70706565
:10295C00643A206D657373616765206C617267659D
:10296C0072207468616E206275666665722E00391D
:10297C006630653938626461363539383139383604
:10298C0064646635336166613761343065343900AF
:10299C003131616264373331633235393333323636
:1029AC0031636436313833626431326436323935EE
:1029BC0000726F7373657269616C5F6D7367732FEF
:1029CC004C6F670030616435316638386663343477
:1029DC00383932663863313036383430373736343C
:1029EC003630303500726F7373657269616C5F6D70
:1029FC007367732F546F706963496E666F006364FD
:102A0C0037313636633734633535326333313166BB
:102A1C0062636332666535613762633238390073DD
:102A2C0074645F6D7367732F54696D650039393247
:102A3C00636538613136383763656338633862648F
:102A4C003838336563373363613431643100737400
:102A5C00645F6D7367732F537472696E67003862AD
:102A6C00393463316235336462363166623661659E
:102A7C00643430363032386164363333326100734B
:102A8C0074645F6D7367732F426F6F6C004C4546B7
:102A9C0054005249474854002F6475636B73746F2C
:102AAC00726167652F636D645F736572766F5F70BB
:042ABC006F73000034
:00000001FF
