:100000000C9435010C9466010C9466010C94660105
:100010000C9466010C9466010C9466010C946601C4
:100020000C9466010C9466010C9466010C946601B4
:100030000C9466010C9466010C9466010C946601A4
:100040000C9466010C9466010C9466010C94660194
:100050000C9466010C9466010C9466010C945B058B
:100060000C9466010C942F060C9405060C94660102
:100070000C9466010C9466010C9466010C94660164
:100080000C9466010C9466010C9466010C94660154
:100090000C94CF050C94A5050C9466010C94660194
:1000A0000C9466010C9466010C9466010C94660134
:1000B0000C9466010C9466010C9466010C94660124
:1000C0000C9466010C9466010C9466010C94660114
:1000D0000C9466010C9466010C9466010C94660104
:1000E0000C9466010C944E020C94AC020C94D20158
:1000F0000C943B030C9498010C94CE010C94AA062A
:100100000C94EE010C949D010C949E020C94D6016B
:100110000C94EA010C94E0010C94C8010C94C40105
:100120000C94B3010C94E4010C94DC010C947B025C
:100130000C94B7010C948A020C94BB010C94EE024F
:100140000C94AF010C94BE0100000A0B02090C0DC7
:100150000E0807030401000000000000000000007A
:10016000000000000000000000000000000000008F
:10017000000000001211100000000000000000004C
:10018000000000000000000000000000000000006F
:1001900020002300260029002C002F00320000013F
:1001A00000000301060109010000220025002800CB
:1001B0002B002E003100340002010000050108016F
:1001C0000B0100002100240027002A002D00300030
:1001D000330001010000040107010A0105050505BE
:1001E000070508080808020202020A0A08080404AF
:1001F00004040101010101010101030303030303DD
:100200000303040707070C0C0C0C0C0C0C0C02026B
:10021000020206060606060606060B0B0B0B0B0B68
:100220000B0B0102102020080810204010204080F5
:1002300002010201080402010102040810204080AA
:100240008040201008040201800402018040201038
:100250000804020108040201010204081020408081
:100260000102040810204080AA0611241FBECFEF0F
:10027000D1E2DEBFCDBF00E00CBF12E0A0E0B2E0F3
:10028000EEECF0E100E00BBF02C007900D92A03849
:10029000B107D9F723E0A0E8B2E001C01D92AB3C62
:1002A000B207E1F711E0C5E3D1E000E006C0219715
:1002B0000109802FFE010E944B08C433D10780E062
:1002C0000807A9F70E9428070C9465080C94000001
:1002D000282F30E0F901E85BFE4F9491F901EE5DC3
:1002E000FD4F449124523E4FF9012491222309F4F9
:1002F00035C0992311F191509231F8F4E92FF0E0D3
:100300008827EA57FE4F8F4F0C944B08B701BB016B
:100310009801AF01B3019D01BE01C401C801CE0126
:10032000D201D601DC01E0019D01E401EA01EE0108
:10033000809180008F7780938000E22FF0E0EE0FB5
:10034000FF1FE855FE4FA591B4918FB7F894EC913B
:10035000611148C040954E234C938FBF0895809102
:1003600080008F7DE8CF80918000877FE4CF84B5C7
:100370008F7784BDE2CF84B58F7DFBCF8091B000B5
:100380008F778093B000D9CF8091B0008F7DF9CF67
:10039000809190008F7780939000CFCF80919000D4
:1003A0008F7DF9CF80919000877FF5CF8091A0005D
:1003B0008F778093A000C1CF8091A0008F7DF9CF6F
:1003C0008091A000877FF5CF809120018F77809367
:1003D0002001B3CF809120018F7DF9CF8091200142
:1003E000877FF5CF4E2BB8CF3FB7F8948091850229
:1003F00090918602A0918702B091880226B5A89BB1
:1004000005C02F3F19F00196A11DB11D3FBFBA2FA6
:10041000A92F982F8827BC01CD01620F711D811D66
:10042000911D42E0660F771F881F991F4A95D1F7EB
:1004300008958F929F92AF92BF92CF92DF92EF92E8
:10044000FF920E94F4014B015C018AEFC82ED12C6F
:10045000E12CF12C0E94F401681979098A099B09A1
:10046000683E734081059105A8F321E0C21AD108C6
:10047000E108F10888EE880E83E0981EA11CB11CEB
:10048000C114D104E104F10429F7FF90EF90DF904B
:10049000CF90BF90AF909F908F900895AF92BF92F2
:1004A000CF92DF92EF92FF920F931F93CF93DF9340
:1004B0006C017B018B01040F151FEB015E01AE186F
:1004C000BF08C017D10759F06991D601ED91FC9191
:1004D0000190F081E02DC6011995892B79F7C501AE
:1004E000DF91CF911F910F91FF90EF90DF90CF9010
:1004F000BF90AF900895FC01538D448D252F30E0BF
:10050000842F90E0821B930B541710F0CF96089520
:1005100001970895FC01918D828D981761F0A28D4D
:10052000AE0FBF2FB11D5D968C91928D9F5F9F7313
:10053000928F90E008958FEF9FEF0895FC01918DC9
:10054000828D981731F0828DE80FF11D858D90E036
:1005500008958FEF9FEF0895FC01918D228D892FD3
:1005600090E0805C9F4F821B91098F7399270895BB
:1005700088E293E00E94AC0221E0892B09F420E09C
:10058000822F089589E892E00E94AC0221E0892B35
:1005900009F420E0822F0895FC01A48DA80FB92F43
:1005A000B11DA35ABF4F2C91848D90E001968F739B
:1005B0009927848FA689B7892C93A089B1898C91BA
:1005C000837080648C93938D848D981306C0028809
:1005D000F389E02D80818F7D80830895EF92FF92D3
:1005E0000F931F93CF93DF93EC0181E0888F9B8D56
:1005F0008C8D98131AC0E889F989808185FF15C010
:100600009FB7F894EE89FF896083E889F989808132
:100610008370806480839FBF81E090E0DF91CF9101
:100620001F910F91FF90EF900895F62E0B8D10E023
:100630000F5F1F4F0F731127E02E8C8D8E110CC092
:100640000FB607FCFACFE889F989808185FFF5CFDD
:10065000CE010E94CC02F1CFEB8DEC0FFD2FF11DEE
:10066000E35AFF4FF0829FB7F8940B8FEA89FB891A
:1006700080818062CFCFCF93DF93EC01888D882378
:10068000B9F0AA89BB89E889F9898C9185FD03C0F5
:10069000808186FD0DC00FB607FCF7CF8C9185FFDA
:1006A000F2CF808185FFEDCFCE010E94CC02E9CF51
:1006B000DF91CF91089580E090E0892B29F00E948E
:1006C000C20281110E94000080E090E0892B29F095
:1006D0000E94B80281110E94000080E090E0892B06
:1006E00049F080E090E0892B29F00E940000811100
:1006F0000E94000080E090E0892B49F080E090E0CB
:10070000892B29F00E94000081110C9400000895AB
:1007100082E192E0089583E392E00895FC018485EC
:10072000958508954F925F926F927F928F929F92DC
:10073000AF92BF92CF92DF92EF92FF920F931F93EF
:10074000CF93DF936C019B017B01F0E0E0E080E060
:1007500090E0DC01E70149917E0150E00E2E02C0DD
:10076000440F551F0A94E2F7052E000C660B770B19
:10077000842B952BA62BB72B3896E032F10551F739
:10078000A9014D5F5F4FFA0104E010E04C015D01EB
:10079000D4E08D0E911CA11CB11C2801712C612C80
:1007A000481459046A047B0428F4618161930F5F43
:1007B0001F4FF3CF280F391FF9011382E6015B8326
:1007C0004A830496DF91CF911F910F91FF90EF9094
:1007D000DF90CF90BF90AF909F908F907F906F9061
:1007E0005F904F9008950F931F93CF93DF938C01E9
:1007F000EC012696CE010E949203D8011A96ED9143
:10080000FC91CE01DF91CF911F910F911994089522
:10081000CF93DF93FC01C281D38163E472E0CE0108
:100820000E945C08892B51F461E087E00E94680116
:1008300061E088E0DF91CF910C94680166E472E09A
:10084000CE010E945C08892B31F460E087E00E94B1
:10085000680160E0EECFDF91CF910895FC01019037
:100860000020E9F73197AF01481B590BBC0189E81B
:1008700092E00C944E028F929F92AF92BF920F9390
:100880001F93CF93DF93CDB7DEB7A1970FB6F89440
:10089000DEBF0FBECDBF19A2423008F44AE08E0180
:1008A0000F5D1F4F842E912CB12CA12CA50194011A
:1008B0000E940A08E62FB901CA01EA30F4F4E05DAB
:1008C000D801EE938D01232B242B252B79F790E073
:1008D00080E0109719F0CD010E942E04A1960FB66A
:1008E000F894DEBF0FBECDBFDF91CF911F910F9166
:1008F000BF90AF909F908F900895E95CE1CFCF9229
:10090000DF92EF92FF92CF93DF936B017C016DE258
:1009100089E892E00E94EE02EC0166277727CB017E
:100920006C197D098E099F094AE00E943B048C0FD7
:100930009D1FDF91CF91FF90EF90DF90CF900895B2
:10094000CF93DF930E942E04EC018AE492E00E9490
:100950002E048C0F9D1FDF91CF9108950F931F934D
:10096000CF93DF9380912603909127039927FC0171
:10097000EE5DFD4F249184529E4FFC0184918823AB
:1009800099F090E0880F991FFC01EE53FE4FA5915E
:10099000B491FC01E855FE4F859194918FB7F8947E
:1009A000EC91E22BEC938FBF60E0809126030E94D4
:1009B000680183E090E00197F1F761E08091260300
:1009C0000E9468018FE090E00197F1F760E080916C
:1009D00026030E946801809126039091270399279E
:1009E000FC01EE5DFD4F249184529E4FFC018491E9
:1009F0008823C1F090E0880F991FFC01EE53FE4F51
:100A0000C591D491FC01E855FE4FA591B4919FB7D3
:100A1000F8948881E22FE0958E2388838C91E823D7
:100A2000EC939FBF80912603909127039927FC01A7
:100A3000EE5DFD4F6491FC01E452FE4FE491F0E065
:100A4000EE0FFF1FE257FE4F8591949100E412E4F0
:100A50002FE030E0462F0E94650661157105810583
:100A6000910529F06F5F7F4F8F4F9F4F9F70DF91F0
:100A7000CF911F910F910895CF93DF93FB01EC016C
:100A8000AA81BB81ED0109900020E9F72197CA1BDB
:100A9000DB0BC083AE01518312821382DC011296FC
:100AA0006D917C91CF0104960E945308CE0104966B
:100AB000DF91CF9108951F920F920FB60F921124DC
:100AC0002F933F938F939F93AF93BF938091810216
:100AD00090918202A0918302B091840230918002B1
:100AE00023E0230F2D3758F50196A11DB11D20934A
:100AF00080028093810290938202A0938302B0933C
:100B000084028091850290918602A0918702B09123
:100B100088020196A11DB11D8093850290938602E3
:100B2000A0938702B0938802BF91AF919F918F915C
:100B30003F912F910F900FBE0F901F90189526E8B0
:100B4000230F0296A11DB11DD2CF1F920F920FB697
:100B50000F9211240BB60F922F933F934F935F93F5
:100B60006F937F938F939F93AF93BF93EF93FF9375
:100B700088E293E00E94CC02FF91EF91BF91AF9188
:100B80009F918F917F916F915F914F913F912F91A5
:100B90000F900BBE0F900FBE0F901F9018951F92D5
:100BA0000F920FB60F9211240BB60F922F938F93C3
:100BB0009F93EF93FF93E0913803F0913903808185
:100BC000E0913E03F0913F0382FD1DC09081809132
:100BD00041038F5F8F7320914203821741F0E091B0
:100BE0004103F0E0E85DFC4F958F80934103FF9156
:100BF000EF919F918F912F910F900BBE0F900FBE91
:100C00000F901F9018958081F2CF1F920F920FB610
:100C10000F9211240BB60F922F933F934F935F9334
:100C20006F937F938F939F93AF93BF93EF93FF93B4
:100C300089E892E00E94CC02FF91EF91BF91AF91C1
:100C40009F918F917F916F915F914F913F912F91E4
:100C50000F900BBE0F900FBE0F901F9018951F9214
:100C60000F920FB60F9211240BB60F922F938F9302
:100C70009F93EF93FF93E0919902F0919A02808104
:100C8000E0919F02F091A00282FD1DC090818091B1
:100C9000A2028F5F8F732091A302821741F0E0912F
:100CA000A202F0E0E757FD4F958F8093A202FF91DB
:100CB000EF919F918F912F910F900BBE0F900FBED0
:100CC0000F901F9018958081F2CFCF92DF92EF9214
:100CD000FF920F931F93E82FF92F05C001501109C0
:100CE0002109310961F1908196239417B9F305C068
:100CF000015011092109310911F1908196239413B2
:100D0000F7CFC12CD12CE12CF12C0AC08FEFC81ADF
:100D1000D80AE80AF80A0C151D052E053F0579F0DA
:100D200080818623841791F36C2D7D2D8E2D9F2D30
:100D30001F910F91FF90EF90DF90CF90089560E0AA
:100D400070E080E090E01F910F91FF90EF90DF90B6
:100D5000CF900895E8E2F3E01382128248EE53E068
:100D600060E070E0448355836683778384E092E09B
:100D7000918380832DEC30E0358724872CEC30E0A4
:100D80003787268728EC30E0318B208B29EC30E048
:100D9000338B228B2AEC30E0358B248B2EEC30E029
:100DA000378B268B118E128E138E148EA9E8B2E02B
:100DB00013961C921E92129714964D935D936D9309
:100DC0007C93179711969C938E9385EC90E01D96DB
:100DD0009C938E931C9784EC90E01F969C938E932B
:100DE0001E9780EC90E051969C938E93509781ECE7
:100DF00090E053969C938E93529782EC90E0559698
:100E00009C938E93549786EC90E057969C938E9388
:100E1000569759961C9259975A961C925A975B96D8
:100E20001C925B975C961C9287E090E0909327035E
:100E300080932603A5ECB3E01596FC93EE931497EC
:100E40008FEF8C9311968C93119712961C920895A4
:100E5000789484B5826084BD84B5816084BD85B595
:100E6000826085BD85B5816085BD80916E008160A1
:100E700080936E0010928100809181008260809347
:100E80008100809181008160809381008091800049
:100E90008160809380008091B10084608093B10074
:100EA0008091B00081608093B00080919100826059
:100EB0008093910080919100816080939100809156
:100EC00090008160809390008091A1008260809367
:100ED000A1008091A10081608093A1008091A00079
:100EE00081608093A0008091210182608093210124
:100EF0008091210181608093210180912001816096
:100F00008093200180917A00846080937A008091A0
:100F10007A00826080937A0080917A008160809369
:100F20007A0080917A00806880937A001092C100E4
:100F3000E0919902F0919A0282E08083E09195021B
:100F4000F09196021082E0919702F09198028FEC56
:100F500080831092A102E0919D02F0919E0286E0B2
:100F60008083E0919B02F0919C028081806180836C
:100F7000E0919B02F0919C02808188608083E091E7
:100F80009B02F0919C02808180688083E0919B02AB
:100F9000F0919C0280818F7D808384E9C82ED12CC2
:100FA000E12CF12C9AE3892E912CA12CB12C8DE40B
:100FB00092E00E94A0040E94AE04A70196010E9444
:100FC0002C08CA01B90197FF1DC00E947F0485E764
:100FD00092E00E94A0040E9419020E94AE04A501A2
:100FE00094010E942C08CA01B90197FF0FC00E940A
:100FF0007F048BE792E00E94A0040E9419020E94E5
:101000005B03D5CF4AE00E943B04E1CF4AE00E9457
:101010003B04EFCFA1E21A2EAA1BBB1BFD010DC0A2
:10102000AA1FBB1FEE1FFF1FA217B307E407F50798
:1010300020F0A21BB30BE40BF50B661F771F881F74
:10104000991F1A9469F760957095809590959B010A
:10105000AC01BD01CF010895052E97FB1EF400944D
:101060000E94430857FD07D00E940A0807FC03D0DE
:101070004EF40C94430850954095309521953F4F80
:101080004F4F5F4F089590958095709561957F4F74
:101090008F4F9F4F0895EE0FFF1F881F8BBF079044
:1010A000F691E02D1994FB01DC0102C001900D9234
:1010B00041505040D8F70895FB01DC018D9101901B
:0E10C00080190110D9F3990B0895F894FFCF11
:1010CE0000000000EE024E027B023B03AC028A02DD
:1010DE009E0239393263653861313638376365635C
:1010EE00386338626438383365633733636134315B
:1010FE006431007374645F6D7367732F5374726918
:10110E006E6700494E004F5554000D0A0054686535
:10111E002064697374616E636520746F206F6273EF
:10112E007461636C657320696E2066726F6E7420D5
:10113E0069733A200020696E63680020636D0000B9
:00000001FF
